{
  "_format": "hh-sol-artifact-1",
  "contractName": "NFTWrapBridge",
  "sourceName": "contracts/wrap/NFTWrapBridge.sol",
  "abi": [
    {
      "inputs": [
        {
          "internalType": "uint32",
          "name": "selfDomain",
          "type": "uint32"
        },
        {
          "internalType": "address",
          "name": "connext",
          "type": "address"
        },
        {
          "internalType": "address",
          "name": "dummyTransactingAssetId",
          "type": "address"
        },
        {
          "internalType": "address",
          "name": "nftImplementation",
          "type": "address"
        }
      ],
      "stateMutability": "nonpayable",
      "type": "constructor"
    },
    {
      "anonymous": false,
      "inputs": [
        {
          "indexed": true,
          "internalType": "address",
          "name": "previousOwner",
          "type": "address"
        },
        {
          "indexed": true,
          "internalType": "address",
          "name": "newOwner",
          "type": "address"
        }
      ],
      "name": "OwnershipTransferred",
      "type": "event"
    },
    {
      "inputs": [
        {
          "internalType": "uint32",
          "name": "domain",
          "type": "uint32"
        }
      ],
      "name": "getBridgeContract",
      "outputs": [
        {
          "internalType": "address",
          "name": "",
          "type": "address"
        }
      ],
      "stateMutability": "view",
      "type": "function"
    },
    {
      "inputs": [],
      "name": "getConnext",
      "outputs": [
        {
          "internalType": "address",
          "name": "",
          "type": "address"
        }
      ],
      "stateMutability": "view",
      "type": "function"
    },
    {
      "inputs": [],
      "name": "getExecutor",
      "outputs": [
        {
          "internalType": "address",
          "name": "",
          "type": "address"
        }
      ],
      "stateMutability": "view",
      "type": "function"
    },
    {
      "inputs": [],
      "name": "getSelfDomain",
      "outputs": [
        {
          "internalType": "uint32",
          "name": "",
          "type": "uint32"
        }
      ],
      "stateMutability": "view",
      "type": "function"
    },
    {
      "inputs": [],
      "name": "isNFTHashiBridge",
      "outputs": [
        {
          "internalType": "bool",
          "name": "",
          "type": "bool"
        }
      ],
      "stateMutability": "pure",
      "type": "function"
    },
    {
      "inputs": [],
      "name": "isNFTHashiWrapBridge",
      "outputs": [
        {
          "internalType": "bool",
          "name": "",
          "type": "bool"
        }
      ],
      "stateMutability": "pure",
      "type": "function"
    },
    {
      "inputs": [],
      "name": "owner",
      "outputs": [
        {
          "internalType": "address",
          "name": "",
          "type": "address"
        }
      ],
      "stateMutability": "view",
      "type": "function"
    },
    {
      "inputs": [],
      "name": "renounceOwnership",
      "outputs": [],
      "stateMutability": "nonpayable",
      "type": "function"
    },
    {
      "inputs": [
        {
          "internalType": "uint32",
          "name": "domain",
          "type": "uint32"
        },
        {
          "internalType": "address",
          "name": "bridgeContract",
          "type": "address"
        }
      ],
      "name": "setBridgeContract",
      "outputs": [],
      "stateMutability": "nonpayable",
      "type": "function"
    },
    {
      "inputs": [
        {
          "internalType": "bytes4",
          "name": "interfaceId",
          "type": "bytes4"
        }
      ],
      "name": "supportsInterface",
      "outputs": [
        {
          "internalType": "bool",
          "name": "",
          "type": "bool"
        }
      ],
      "stateMutability": "view",
      "type": "function"
    },
    {
      "inputs": [
        {
          "internalType": "address",
          "name": "newOwner",
          "type": "address"
        }
      ],
      "name": "transferOwnership",
      "outputs": [],
      "stateMutability": "nonpayable",
      "type": "function"
    },
    {
      "inputs": [
        {
          "internalType": "address",
          "name": "birthChainNFTContractAddress",
          "type": "address"
        },
        {
          "internalType": "address",
          "name": "to",
          "type": "address"
        },
        {
          "internalType": "uint256",
          "name": "tokenId",
          "type": "uint256"
        },
        {
          "internalType": "uint32",
          "name": "birthChainDomain",
          "type": "uint32"
        },
        {
          "internalType": "string",
          "name": "name",
          "type": "string"
        },
        {
          "internalType": "string",
          "name": "symbol",
          "type": "string"
        },
        {
          "internalType": "string",
          "name": "tokenURI",
          "type": "string"
        }
      ],
      "name": "xReceive",
      "outputs": [],
      "stateMutability": "nonpayable",
      "type": "function"
    },
    {
      "inputs": [
        {
          "internalType": "address",
          "name": "processingNFTContractAddress",
          "type": "address"
        },
        {
          "internalType": "address",
          "name": "from",
          "type": "address"
        },
        {
          "internalType": "address",
          "name": "to",
          "type": "address"
        },
        {
          "internalType": "uint256",
          "name": "tokenId",
          "type": "uint256"
        },
        {
          "internalType": "uint32",
          "name": "sendToDomain",
          "type": "uint32"
        }
      ],
      "name": "xSend",
      "outputs": [],
      "stateMutability": "nonpayable",
      "type": "function"
    }
  ],
  "bytecode": "0x6101006040523480156200001257600080fd5b5060405162002c7638038062002c76833981810160405281019062000038919062000343565b8383836200005b6200004f620001cc60201b60201c565b620001d460201b60201c565b8263ffffffff1660e08163ffffffff16815250508173ffffffffffffffffffffffffffffffffffffffff1660808173ffffffffffffffffffffffffffffffffffffffff168152505060805173ffffffffffffffffffffffffffffffffffffffff1663c34c08e56040518163ffffffff1660e01b8152600401602060405180830381865afa158015620000f1573d6000803e3d6000fd5b505050506040513d601f19601f82011682018060405250810190620001179190620003fa565b73ffffffffffffffffffffffffffffffffffffffff1660a08173ffffffffffffffffffffffffffffffffffffffff16815250508073ffffffffffffffffffffffffffffffffffffffff1660c08173ffffffffffffffffffffffffffffffffffffffff168152505050505080600460006101000a81548173ffffffffffffffffffffffffffffffffffffffff021916908373ffffffffffffffffffffffffffffffffffffffff160217905550505050506200042c565b600033905090565b60008060009054906101000a900473ffffffffffffffffffffffffffffffffffffffff169050816000806101000a81548173ffffffffffffffffffffffffffffffffffffffff021916908373ffffffffffffffffffffffffffffffffffffffff1602179055508173ffffffffffffffffffffffffffffffffffffffff168173ffffffffffffffffffffffffffffffffffffffff167f8be0079c531659141344cd1fd0a4f28419497f9722a3daafe3b4186f6b6457e060405160405180910390a35050565b600080fd5b600063ffffffff82169050919050565b620002b8816200029d565b8114620002c457600080fd5b50565b600081519050620002d881620002ad565b92915050565b600073ffffffffffffffffffffffffffffffffffffffff82169050919050565b60006200030b82620002de565b9050919050565b6200031d81620002fe565b81146200032957600080fd5b50565b6000815190506200033d8162000312565b92915050565b6000806000806080858703121562000360576200035f62000298565b5b60006200037087828801620002c7565b945050602062000383878288016200032c565b935050604062000396878288016200032c565b9250506060620003a9878288016200032c565b91505092959194509250565b6000620003c282620002fe565b9050919050565b620003d481620003b5565b8114620003e057600080fd5b50565b600081519050620003f481620003c9565b92915050565b60006020828403121562000413576200041262000298565b5b60006200042384828501620003e3565b91505092915050565b60805160a05160c05160e0516127fb6200047b600039600081816102e001526116ec01526000611788015260008181610441015261070701526000818161051a01526117d201526127fb6000f3fe608060405234801561001057600080fd5b50600436106100cf5760003560e01c80636c1032af1161008c578063975740c611610066578063975740c6146101f0578063ab50da8b1461020e578063c26169731461022a578063f2fde38b14610246576100cf565b80636c1032af146101aa578063715018a6146101c85780638da5cb5b146101d2576100cf565b806301ffc9a7146100d45780631b36855b146101045780631e72d86614610122578063295f4d7b146101405780633b839450146101705780635c818f241461018c575b600080fd5b6100ee60048036038101906100e9919061194a565b610262565b6040516100fb9190611992565b60405180910390f35b61010c6102dc565b60405161011991906119cc565b60405180910390f35b61012a610304565b6040516101379190611992565b60405180910390f35b61015a60048036038101906101559190611a13565b61030d565b6040516101679190611a81565b60405180910390f35b61018a60048036038101906101859190611ac8565b610356565b005b610194610434565b6040516101a19190611992565b60405180910390f35b6101b261043d565b6040516101bf9190611a81565b60405180910390f35b6101d0610465565b005b6101da6104ed565b6040516101e79190611a81565b60405180910390f35b6101f8610516565b6040516102059190611a81565b60405180910390f35b61022860048036038101906102239190611c84565b61053e565b005b610244600480360381019061023f9190611d7a565b610a86565b005b610260600480360381019061025b9190611df5565b61124e565b005b60007f35b03cdc000000000000000000000000000000000000000000000000000000007bffffffffffffffffffffffffffffffffffffffffffffffffffffffff1916827bffffffffffffffffffffffffffffffffffffffffffffffffffffffff191614806102d557506102d482611346565b5b9050919050565b60007f0000000000000000000000000000000000000000000000000000000000000000905090565b60006001905090565b6000600160008363ffffffff1663ffffffff16815260200190815260200160002060009054906101000a900473ffffffffffffffffffffffffffffffffffffffff169050919050565b61035e6113c0565b73ffffffffffffffffffffffffffffffffffffffff1661037c6104ed565b73ffffffffffffffffffffffffffffffffffffffff16146103d2576040517f08c379a00000000000000000000000000000000000000000000000000000000081526004016103c990611e7f565b60405180910390fd5b80600160008463ffffffff1663ffffffff16815260200190815260200160002060006101000a81548173ffffffffffffffffffffffffffffffffffffffff021916908373ffffffffffffffffffffffffffffffffffffffff1602179055505050565b60006001905090565b60007f0000000000000000000000000000000000000000000000000000000000000000905090565b61046d6113c0565b73ffffffffffffffffffffffffffffffffffffffff1661048b6104ed565b73ffffffffffffffffffffffffffffffffffffffff16146104e1576040517f08c379a00000000000000000000000000000000000000000000000000000000081526004016104d890611e7f565b60405180910390fd5b6104eb60006113c8565b565b60008060009054906101000a900473ffffffffffffffffffffffffffffffffffffffff16905090565b60007f0000000000000000000000000000000000000000000000000000000000000000905090565b3373ffffffffffffffffffffffffffffffffffffffff16632b59241f6040518163ffffffff1660e01b81526004016020604051808303816000875af115801561058b573d6000803e3d6000fd5b505050506040513d601f19601f820116820180604052508101906105af9190611eb4565b50600160003373ffffffffffffffffffffffffffffffffffffffff1663938b5f326040518163ffffffff1660e01b81526004016020604051808303816000875af1158015610601573d6000803e3d6000fd5b505050506040513d601f19601f820116820180604052508101906106259190611ef6565b63ffffffff1663ffffffff16815260200190815260200160002060009054906101000a900473ffffffffffffffffffffffffffffffffffffffff1673ffffffffffffffffffffffffffffffffffffffff163373ffffffffffffffffffffffffffffffffffffffff16632b59241f6040518163ffffffff1660e01b81526004016020604051808303816000875af11580156106c3573d6000803e3d6000fd5b505050506040513d601f19601f820116820180604052508101906106e79190611eb4565b73ffffffffffffffffffffffffffffffffffffffff1614801561075557507f000000000000000000000000000000000000000000000000000000000000000073ffffffffffffffffffffffffffffffffffffffff163373ffffffffffffffffffffffffffffffffffffffff16145b610794576040517f08c379a000000000000000000000000000000000000000000000000000000000815260040161078b90611f6f565b60405180910390fd5b600061079e6102dc565b90508063ffffffff168563ffffffff161415610828578773ffffffffffffffffffffffffffffffffffffffff166342842e0e3089896040518463ffffffff1660e01b81526004016107f193929190611f9e565b600060405180830381600087803b15801561080b57600080fd5b505af115801561081f573d6000803e3d6000fd5b50505050610a7c565b6000858960405160200161083d929190612053565b6040516020818303038152906040528051906020012090506000610884600460009054906101000a900473ffffffffffffffffffffffffffffffffffffffff16833061148c565b905061088f8161150c565b610a0a576108bf600460009054906101000a900473ffffffffffffffffffffffffffffffffffffffff168361152f565b5089600260008373ffffffffffffffffffffffffffffffffffffffff1673ffffffffffffffffffffffffffffffffffffffff16815260200190815260200160002060006101000a81548173ffffffffffffffffffffffffffffffffffffffff021916908373ffffffffffffffffffffffffffffffffffffffff16021790555086600360008373ffffffffffffffffffffffffffffffffffffffff1673ffffffffffffffffffffffffffffffffffffffff16815260200190815260200160002060006101000a81548163ffffffff021916908363ffffffff1602179055508073ffffffffffffffffffffffffffffffffffffffff16634cd88b7687876040518363ffffffff1660e01b81526004016109d79291906120f6565b600060405180830381600087803b1580156109f157600080fd5b505af1158015610a05573d6000803e3d6000fd5b505050505b8073ffffffffffffffffffffffffffffffffffffffff1663d3fc98648a8a876040518463ffffffff1660e01b8152600401610a479392919061212d565b600060405180830381600087803b158015610a6157600080fd5b505af1158015610a75573d6000803e3d6000fd5b5050505050505b5050505050505050565b610a8e6113c0565b73ffffffffffffffffffffffffffffffffffffffff168573ffffffffffffffffffffffffffffffffffffffff16636352211e846040518263ffffffff1660e01b8152600401610add919061216b565b602060405180830381865afa158015610afa573d6000803e3d6000fd5b505050506040513d601f19601f82011682018060405250810190610b1e9190611eb4565b73ffffffffffffffffffffffffffffffffffffffff161480610beb5750610b436113c0565b73ffffffffffffffffffffffffffffffffffffffff168573ffffffffffffffffffffffffffffffffffffffff1663081812fc846040518263ffffffff1660e01b8152600401610b92919061216b565b602060405180830381865afa158015610baf573d6000803e3d6000fd5b505050506040513d601f19601f82011682018060405250810190610bd39190611eb4565b73ffffffffffffffffffffffffffffffffffffffff16145b80610c7557508473ffffffffffffffffffffffffffffffffffffffff1663e985e9c585610c166113c0565b6040518363ffffffff1660e01b8152600401610c33929190612186565b602060405180830381865afa158015610c50573d6000803e3d6000fd5b505050506040513d601f19601f82011682018060405250810190610c7491906121db565b5b610cb4576040517f08c379a0000000000000000000000000000000000000000000000000000000008152600401610cab90612254565b60405180910390fd5b8373ffffffffffffffffffffffffffffffffffffffff168573ffffffffffffffffffffffffffffffffffffffff16636352211e846040518263ffffffff1660e01b8152600401610d04919061216b565b602060405180830381865afa158015610d21573d6000803e3d6000fd5b505050506040513d601f19601f82011682018060405250810190610d459190611eb4565b73ffffffffffffffffffffffffffffffffffffffff1614610d9b576040517f08c379a0000000000000000000000000000000000000000000000000000000008152600401610d92906122c0565b60405180910390fd5b60008060008073ffffffffffffffffffffffffffffffffffffffff16600260008a73ffffffffffffffffffffffffffffffffffffffff1673ffffffffffffffffffffffffffffffffffffffff16815260200190815260200160002060009054906101000a900473ffffffffffffffffffffffffffffffffffffffff1673ffffffffffffffffffffffffffffffffffffffff1614158015610e9157506000600360008a73ffffffffffffffffffffffffffffffffffffffff1673ffffffffffffffffffffffffffffffffffffffff16815260200190815260200160002060009054906101000a900463ffffffff1663ffffffff1614155b15610fbd57600260008973ffffffffffffffffffffffffffffffffffffffff1673ffffffffffffffffffffffffffffffffffffffff16815260200190815260200160002060009054906101000a900473ffffffffffffffffffffffffffffffffffffffff169250600360008973ffffffffffffffffffffffffffffffffffffffff1673ffffffffffffffffffffffffffffffffffffffff16815260200190815260200160002060009054906101000a900463ffffffff1691508190508273ffffffffffffffffffffffffffffffffffffffff166342966c68866040518263ffffffff1660e01b8152600401610f86919061216b565b600060405180830381600087803b158015610fa057600080fd5b505af1158015610fb4573d6000803e3d6000fd5b5050505061103d565b879250610fc86102dc565b91508390508273ffffffffffffffffffffffffffffffffffffffff166323b872dd8830886040518463ffffffff1660e01b815260040161100a93929190611f9e565b600060405180830381600087803b15801561102457600080fd5b505af1158015611038573d6000803e3d6000fd5b505050505b60008873ffffffffffffffffffffffffffffffffffffffff166306fdde036040518163ffffffff1660e01b8152600401600060405180830381865afa15801561108a573d6000803e3d6000fd5b505050506040513d6000823e3d601f19601f820116820180604052508101906110b39190612350565b905060008973ffffffffffffffffffffffffffffffffffffffff166395d89b416040518163ffffffff1660e01b8152600401600060405180830381865afa158015611102573d6000803e3d6000fd5b505050506040513d6000823e3d601f19601f8201168201806040525081019061112b9190612350565b905060008a73ffffffffffffffffffffffffffffffffffffffff1663c87b56dd896040518263ffffffff1660e01b8152600401611168919061216b565b600060405180830381865afa158015611185573d6000803e3d6000fd5b505050506040513d6000823e3d601f19601f820116820180604052508101906111ae9190612350565b9050600063ab50da8b60e01b878b8b898888886040516024016111d79796959493929190612399565b604051602081830303815290604052907bffffffffffffffffffffffffffffffffffffffffffffffffffffffff19166020820180517bffffffffffffffffffffffffffffffffffffffffffffffffffffffff838183161783525050505090506112408582611606565b505050505050505050505050565b6112566113c0565b73ffffffffffffffffffffffffffffffffffffffff166112746104ed565b73ffffffffffffffffffffffffffffffffffffffff16146112ca576040517f08c379a00000000000000000000000000000000000000000000000000000000081526004016112c190611e7f565b60405180910390fd5b600073ffffffffffffffffffffffffffffffffffffffff168173ffffffffffffffffffffffffffffffffffffffff16141561133a576040517f08c379a00000000000000000000000000000000000000000000000000000000081526004016113319061248f565b60405180910390fd5b611343816113c8565b50565b60007fecdff67f000000000000000000000000000000000000000000000000000000007bffffffffffffffffffffffffffffffffffffffffffffffffffffffff1916827bffffffffffffffffffffffffffffffffffffffffffffffffffffffff191614806113b957506113b882611874565b5b9050919050565b600033905090565b60008060009054906101000a900473ffffffffffffffffffffffffffffffffffffffff169050816000806101000a81548173ffffffffffffffffffffffffffffffffffffffff021916908373ffffffffffffffffffffffffffffffffffffffff1602179055508173ffffffffffffffffffffffffffffffffffffffff168173ffffffffffffffffffffffffffffffffffffffff167f8be0079c531659141344cd1fd0a4f28419497f9722a3daafe3b4186f6b6457e060405160405180910390a35050565b60006040517f3d602d80600a3d3981f3363d3d373d3d3d363d7300000000000000000000000081528460601b60148201527f5af43d82803e903d91602b57fd5bf3ff0000000000000000000000000000000060288201528260601b603882015283604c82015260378120606c820152605560378201209150509392505050565b6000808273ffffffffffffffffffffffffffffffffffffffff163b119050919050565b60006040517f3d602d80600a3d3981f3363d3d373d3d3d363d7300000000000000000000000081528360601b60148201527f5af43d82803e903d91602b57fd5bf300000000000000000000000000000000006028820152826037826000f5915050600073ffffffffffffffffffffffffffffffffffffffff168173ffffffffffffffffffffffffffffffffffffffff161415611600576040517f08c379a00000000000000000000000000000000000000000000000000000000081526004016115f7906124fb565b60405180910390fd5b92915050565b6000600160008463ffffffff1663ffffffff16815260200190815260200160002060009054906101000a900473ffffffffffffffffffffffffffffffffffffffff169050600073ffffffffffffffffffffffffffffffffffffffff168173ffffffffffffffffffffffffffffffffffffffff1614156116ba576040517f08c379a00000000000000000000000000000000000000000000000000000000081526004016116b190612567565b60405180910390fd5b60006040518061012001604052808373ffffffffffffffffffffffffffffffffffffffff1681526020018481526020017f000000000000000000000000000000000000000000000000000000000000000063ffffffff1681526020018563ffffffff1681526020018373ffffffffffffffffffffffffffffffffffffffff1681526020013073ffffffffffffffffffffffffffffffffffffffff16815260200160008152602001600115158152602001600015158152509050600060405180608001604052808381526020017f000000000000000000000000000000000000000000000000000000000000000073ffffffffffffffffffffffffffffffffffffffff16815260200160008152602001600081525090507f000000000000000000000000000000000000000000000000000000000000000073ffffffffffffffffffffffffffffffffffffffff16634156a883826040518263ffffffff1660e01b81526004016118299190612740565b6020604051808303816000875af1158015611848573d6000803e3d6000fd5b505050506040513d601f19601f8201168201806040525081019061186c9190612798565b505050505050565b60007f01ffc9a7000000000000000000000000000000000000000000000000000000007bffffffffffffffffffffffffffffffffffffffffffffffffffffffff1916827bffffffffffffffffffffffffffffffffffffffffffffffffffffffff1916149050919050565b6000604051905090565b600080fd5b600080fd5b60007fffffffff0000000000000000000000000000000000000000000000000000000082169050919050565b611927816118f2565b811461193257600080fd5b50565b6000813590506119448161191e565b92915050565b6000602082840312156119605761195f6118e8565b5b600061196e84828501611935565b91505092915050565b60008115159050919050565b61198c81611977565b82525050565b60006020820190506119a76000830184611983565b92915050565b600063ffffffff82169050919050565b6119c6816119ad565b82525050565b60006020820190506119e160008301846119bd565b92915050565b6119f0816119ad565b81146119fb57600080fd5b50565b600081359050611a0d816119e7565b92915050565b600060208284031215611a2957611a286118e8565b5b6000611a37848285016119fe565b91505092915050565b600073ffffffffffffffffffffffffffffffffffffffff82169050919050565b6000611a6b82611a40565b9050919050565b611a7b81611a60565b82525050565b6000602082019050611a966000830184611a72565b92915050565b611aa581611a60565b8114611ab057600080fd5b50565b600081359050611ac281611a9c565b92915050565b60008060408385031215611adf57611ade6118e8565b5b6000611aed858286016119fe565b9250506020611afe85828601611ab3565b9150509250929050565b6000819050919050565b611b1b81611b08565b8114611b2657600080fd5b50565b600081359050611b3881611b12565b92915050565b600080fd5b600080fd5b6000601f19601f8301169050919050565b7f4e487b7100000000000000000000000000000000000000000000000000000000600052604160045260246000fd5b611b9182611b48565b810181811067ffffffffffffffff82111715611bb057611baf611b59565b5b80604052505050565b6000611bc36118de565b9050611bcf8282611b88565b919050565b600067ffffffffffffffff821115611bef57611bee611b59565b5b611bf882611b48565b9050602081019050919050565b82818337600083830152505050565b6000611c27611c2284611bd4565b611bb9565b905082815260208101848484011115611c4357611c42611b43565b5b611c4e848285611c05565b509392505050565b600082601f830112611c6b57611c6a611b3e565b5b8135611c7b848260208601611c14565b91505092915050565b600080600080600080600060e0888a031215611ca357611ca26118e8565b5b6000611cb18a828b01611ab3565b9750506020611cc28a828b01611ab3565b9650506040611cd38a828b01611b29565b9550506060611ce48a828b016119fe565b945050608088013567ffffffffffffffff811115611d0557611d046118ed565b5b611d118a828b01611c56565b93505060a088013567ffffffffffffffff811115611d3257611d316118ed565b5b611d3e8a828b01611c56565b92505060c088013567ffffffffffffffff811115611d5f57611d5e6118ed565b5b611d6b8a828b01611c56565b91505092959891949750929550565b600080600080600060a08688031215611d9657611d956118e8565b5b6000611da488828901611ab3565b9550506020611db588828901611ab3565b9450506040611dc688828901611ab3565b9350506060611dd788828901611b29565b9250506080611de8888289016119fe565b9150509295509295909350565b600060208284031215611e0b57611e0a6118e8565b5b6000611e1984828501611ab3565b91505092915050565b600082825260208201905092915050565b7f4f776e61626c653a2063616c6c6572206973206e6f7420746865206f776e6572600082015250565b6000611e69602083611e22565b9150611e7482611e33565b602082019050919050565b60006020820190508181036000830152611e9881611e5c565b9050919050565b600081519050611eae81611a9c565b92915050565b600060208284031215611eca57611ec96118e8565b5b6000611ed884828501611e9f565b91505092915050565b600081519050611ef0816119e7565b92915050565b600060208284031215611f0c57611f0b6118e8565b5b6000611f1a84828501611ee1565b91505092915050565b7f4e46544272696467653a20696e76616c6964206578656375746f720000000000600082015250565b6000611f59601b83611e22565b9150611f6482611f23565b602082019050919050565b60006020820190508181036000830152611f8881611f4c565b9050919050565b611f9881611b08565b82525050565b6000606082019050611fb36000830186611a72565b611fc06020830185611a72565b611fcd6040830184611f8f565b949350505050565b60008160e01b9050919050565b6000611fed82611fd5565b9050919050565b612005612000826119ad565b611fe2565b82525050565b60008160601b9050919050565b60006120238261200b565b9050919050565b600061203582612018565b9050919050565b61204d61204882611a60565b61202a565b82525050565b600061205f8285611ff4565b60048201915061206f828461203c565b6014820191508190509392505050565b600081519050919050565b60005b838110156120a857808201518184015260208101905061208d565b838111156120b7576000848401525b50505050565b60006120c88261207f565b6120d28185611e22565b93506120e281856020860161208a565b6120eb81611b48565b840191505092915050565b6000604082019050818103600083015261211081856120bd565b9050818103602083015261212481846120bd565b90509392505050565b60006060820190506121426000830186611a72565b61214f6020830185611f8f565b818103604083015261216181846120bd565b9050949350505050565b60006020820190506121806000830184611f8f565b92915050565b600060408201905061219b6000830185611a72565b6121a86020830184611a72565b9392505050565b6121b881611977565b81146121c357600080fd5b50565b6000815190506121d5816121af565b92915050565b6000602082840312156121f1576121f06118e8565b5b60006121ff848285016121c6565b91505092915050565b7f4e61746976654e46543a20696e76616c69642073656e64657200000000000000600082015250565b600061223e601983611e22565b915061224982612208565b602082019050919050565b6000602082019050818103600083015261226d81612231565b9050919050565b7f4e61746976654e46543a20696e76616c69642066726f6d000000000000000000600082015250565b60006122aa601783611e22565b91506122b582612274565b602082019050919050565b600060208201905081810360008301526122d98161229d565b9050919050565b60006122f36122ee84611bd4565b611bb9565b90508281526020810184848401111561230f5761230e611b43565b5b61231a84828561208a565b509392505050565b600082601f83011261233757612336611b3e565b5b81516123478482602086016122e0565b91505092915050565b600060208284031215612366576123656118e8565b5b600082015167ffffffffffffffff811115612384576123836118ed565b5b61239084828501612322565b91505092915050565b600060e0820190506123ae600083018a611a72565b6123bb6020830189611a72565b6123c86040830188611f8f565b6123d560608301876119bd565b81810360808301526123e781866120bd565b905081810360a08301526123fb81856120bd565b905081810360c083015261240f81846120bd565b905098975050505050505050565b7f4f776e61626c653a206e6577206f776e657220697320746865207a65726f206160008201527f6464726573730000000000000000000000000000000000000000000000000000602082015250565b6000612479602683611e22565b91506124848261241d565b604082019050919050565b600060208201905081810360008301526124a88161246c565b9050919050565b7f455243313136373a2063726561746532206661696c6564000000000000000000600082015250565b60006124e5601783611e22565b91506124f0826124af565b602082019050919050565b60006020820190508181036000830152612514816124d8565b9050919050565b7f4e46544272696467653a20696e76616c69642062726964676500000000000000600082015250565b6000612551601983611e22565b915061255c8261251b565b602082019050919050565b6000602082019050818103600083015261258081612544565b9050919050565b61259081611a60565b82525050565b600081519050919050565b600082825260208201905092915050565b60006125bd82612596565b6125c781856125a1565b93506125d781856020860161208a565b6125e081611b48565b840191505092915050565b6125f4816119ad565b82525050565b61260381611b08565b82525050565b61261281611977565b82525050565b6000610120830160008301516126316000860182612587565b506020830151848203602086015261264982826125b2565b915050604083015161265e60408601826125eb565b50606083015161267160608601826125eb565b5060808301516126846080860182612587565b5060a083015161269760a0860182612587565b5060c08301516126aa60c08601826125fa565b5060e08301516126bd60e0860182612609565b506101008301516126d2610100860182612609565b508091505092915050565b600060808301600083015184820360008601526126fa8282612618565b915050602083015161270f6020860182612587565b50604083015161272260408601826125fa565b50606083015161273560608601826125fa565b508091505092915050565b6000602082019050818103600083015261275a81846126dd565b905092915050565b6000819050919050565b61277581612762565b811461278057600080fd5b50565b6000815190506127928161276c565b92915050565b6000602082840312156127ae576127ad6118e8565b5b60006127bc84828501612783565b9150509291505056fea2646970667358221220e5183aefdce43e0899c25ccd9fc6d2c39a0ba12d57b61eba920fc4c23926675864736f6c634300080b0033",
  "linkReferences": {},
  "deployedLinkReferences": {}
}